{
  "_format": "hh-sol-artifact-1",
  "contractName": "CrowedFunding",
  "sourceName": "contracts/Funding.sol",
  "abi": [
    {
      "inputs": [],
      "stateMutability": "nonpayable",
      "type": "constructor"
    },
    {
      "inputs": [
        {
          "internalType": "address",
          "name": "account",
          "type": "address"
        }
      ],
      "name": "balanceOf",
      "outputs": [
        {
          "internalType": "uint256",
          "name": "",
          "type": "uint256"
        }
      ],
      "stateMutability": "view",
      "type": "function"
    },
    {
      "inputs": [
        {
          "internalType": "address",
          "name": "",
          "type": "address"
        }
      ],
      "name": "contributer",
      "outputs": [
        {
          "internalType": "uint256",
          "name": "",
          "type": "uint256"
        }
      ],
      "stateMutability": "view",
      "type": "function"
    },
    {
      "inputs": [
        {
          "internalType": "string",
          "name": "_description",
          "type": "string"
        },
        {
          "internalType": "address payable",
          "name": "_recipient",
          "type": "address"
        },
        {
          "internalType": "uint256",
          "name": "_value",
          "type": "uint256"
        }
      ],
      "name": "createRequest",
      "outputs": [],
      "stateMutability": "nonpayable",
      "type": "function"
    },
    {
      "inputs": [],
      "name": "deadline",
      "outputs": [
        {
          "internalType": "uint256",
          "name": "",
          "type": "uint256"
        }
      ],
      "stateMutability": "view",
      "type": "function"
    },
    {
      "inputs": [],
      "name": "getContractBalance",
      "outputs": [
        {
          "internalType": "uint256",
          "name": "",
          "type": "uint256"
        }
      ],
      "stateMutability": "view",
      "type": "function"
    },
    {
      "inputs": [
        {
          "internalType": "uint256",
          "name": "_requestNo",
          "type": "uint256"
        }
      ],
      "name": "makePayment",
      "outputs": [],
      "stateMutability": "nonpayable",
      "type": "function"
    },
    {
      "inputs": [
        {
          "internalType": "address",
          "name": "to",
          "type": "address"
        },
        {
          "internalType": "uint256",
          "name": "amount",
          "type": "uint256"
        }
      ],
      "name": "makeTransaction",
      "outputs": [],
      "stateMutability": "nonpayable",
      "type": "function"
    },
    {
      "inputs": [],
      "name": "manager",
      "outputs": [
        {
          "internalType": "address",
          "name": "",
          "type": "address"
        }
      ],
      "stateMutability": "view",
      "type": "function"
    },
    {
      "inputs": [],
      "name": "minContribution",
      "outputs": [
        {
          "internalType": "uint256",
          "name": "",
          "type": "uint256"
        }
      ],
      "stateMutability": "view",
      "type": "function"
    },
    {
      "inputs": [],
      "name": "noOfContributer",
      "outputs": [
        {
          "internalType": "uint256",
          "name": "",
          "type": "uint256"
        }
      ],
      "stateMutability": "view",
      "type": "function"
    },
    {
      "inputs": [],
      "name": "noOfRequests",
      "outputs": [
        {
          "internalType": "uint256",
          "name": "",
          "type": "uint256"
        }
      ],
      "stateMutability": "view",
      "type": "function"
    },
    {
      "inputs": [],
      "name": "raisedAmount",
      "outputs": [
        {
          "internalType": "uint256",
          "name": "",
          "type": "uint256"
        }
      ],
      "stateMutability": "view",
      "type": "function"
    },
    {
      "inputs": [],
      "name": "refund",
      "outputs": [],
      "stateMutability": "nonpayable",
      "type": "function"
    },
    {
      "inputs": [
        {
          "internalType": "uint256",
          "name": "",
          "type": "uint256"
        }
      ],
      "name": "requests",
      "outputs": [
        {
          "internalType": "string",
          "name": "description",
          "type": "string"
        },
        {
          "internalType": "address payable",
          "name": "recipient",
          "type": "address"
        },
        {
          "internalType": "uint256",
          "name": "noOfVoters",
          "type": "uint256"
        },
        {
          "internalType": "bool",
          "name": "completed",
          "type": "bool"
        },
        {
          "internalType": "uint256",
          "name": "value",
          "type": "uint256"
        }
      ],
      "stateMutability": "view",
      "type": "function"
    },
    {
      "inputs": [],
      "name": "sendEth",
      "outputs": [],
      "stateMutability": "payable",
      "type": "function"
    },
    {
      "inputs": [],
      "name": "target",
      "outputs": [
        {
          "internalType": "uint256",
          "name": "",
          "type": "uint256"
        }
      ],
      "stateMutability": "view",
      "type": "function"
    },
    {
      "inputs": [
        {
          "internalType": "uint256",
          "name": "_requestNo",
          "type": "uint256"
        }
      ],
      "name": "voteRequest",
      "outputs": [],
      "stateMutability": "nonpayable",
      "type": "function"
    }
  ],
  "bytecode": "0x6080604052612710600955618ca0600a553480156200001d57600080fd5b5033600160006101000a81548173ffffffffffffffffffffffffffffffffffffffff021916908373ffffffffffffffffffffffffffffffffffffffff160217905550600a54426200006f91906200010c565b6004819055506009546003819055506064600281905550620186a0600b60003373ffffffffffffffffffffffffffffffffffffffff1673ffffffffffffffffffffffffffffffffffffffff1681526020019081526020016000208190555062000169565b6000819050919050565b7f4e487b7100000000000000000000000000000000000000000000000000000000600052601160045260246000fd5b60006200011982620000d3565b91506200012683620000d3565b9250827fffffffffffffffffffffffffffffffffffffffffffffffffffffffffffffffff038211156200015e576200015d620000dd565b5b828201905092915050565b611a0780620001796000396000f3fe6080604052600436106100fe5760003560e01c80636f9fb98a11610095578063aaffadf311610064578063aaffadf314610306578063c1f11b4c14610331578063c59ee1dc1461035c578063d4b8399214610387578063e6beded8146103b2576100fe565b80636f9fb98a1461022057806370a082311461024b57806381d12c58146102885780639746483e146102c9576100fe565b8063481c6a75116100d1578063481c6a751461018c5780634cb6f4a5146101b75780635114cb52146101e0578063590e1ae314610209576100fe565b806306e99fef146101035780631b16bb5c1461010d57806329dcb0cf1461013657806330d539e114610161575b600080fd5b61010b6103db565b005b34801561011957600080fd5b50610134600480360381019061012f919061104b565b610535565b005b34801561014257600080fd5b5061014b610688565b60405161015891906110c9565b60405180910390f35b34801561016d57600080fd5b5061017661068e565b60405161018391906110c9565b60405180910390f35b34801561019857600080fd5b506101a1610694565b6040516101ae9190611105565b60405180910390f35b3480156101c357600080fd5b506101de60048036038101906101d99190611120565b6106ba565b005b3480156101ec57600080fd5b5061020760048036038101906102029190611120565b61085f565b005b34801561021557600080fd5b5061021e6109f9565b005b34801561022c57600080fd5b50610235610b9e565b60405161024291906110c9565b60405180910390f35b34801561025757600080fd5b50610272600480360381019061026d9190611179565b610ba6565b60405161027f91906110c9565b60405180910390f35b34801561029457600080fd5b506102af60048036038101906102aa9190611120565b610bef565b6040516102c0959493929190611258565b60405180910390f35b3480156102d557600080fd5b506102f060048036038101906102eb9190611179565b610cda565b6040516102fd91906110c9565b60405180910390f35b34801561031257600080fd5b5061031b610cf2565b60405161032891906110c9565b60405180910390f35b34801561033d57600080fd5b50610346610cf8565b60405161035391906110c9565b60405180910390f35b34801561036857600080fd5b50610371610cfe565b60405161037e91906110c9565b60405180910390f35b34801561039357600080fd5b5061039c610d04565b6040516103a991906110c9565b60405180910390f35b3480156103be57600080fd5b506103d960048036038101906103d491906112b2565b610d0a565b005b600454421061041f576040517f08c379a000000000000000000000000000000000000000000000000000000000815260040161041690611364565b60405180910390fd5b6002543411610463576040517f08c379a000000000000000000000000000000000000000000000000000000000815260040161045a906113f6565b60405180910390fd5b60008060003373ffffffffffffffffffffffffffffffffffffffff1673ffffffffffffffffffffffffffffffffffffffff1681526020019081526020016000205414156104c5576001600560008282546104bd9190611445565b925050819055505b346000803373ffffffffffffffffffffffffffffffffffffffff1673ffffffffffffffffffffffffffffffffffffffff16815260200190815260200160002060008282546105139190611445565b92505081905550346006600082825461052c9190611445565b92505081905550565b600160009054906101000a900473ffffffffffffffffffffffffffffffffffffffff1673ffffffffffffffffffffffffffffffffffffffff163373ffffffffffffffffffffffffffffffffffffffff16146105c5576040517f08c379a00000000000000000000000000000000000000000000000000000000081526004016105bc9061150d565b60405180910390fd5b60006007600060085481526020019081526020016000209050600860008154809291906105f19061152d565b91905055508381600001908051906020019061060e929190610dba565b50828160010160006101000a81548173ffffffffffffffffffffffffffffffffffffffff021916908373ffffffffffffffffffffffffffffffffffffffff16021790555081816004018190555060008160030160006101000a81548160ff0219169083151502179055506000816002018190555050505050565b60045481565b60055481565b600160009054906101000a900473ffffffffffffffffffffffffffffffffffffffff1681565b60008060003373ffffffffffffffffffffffffffffffffffffffff1673ffffffffffffffffffffffffffffffffffffffff168152602001908152602001600020541161073b576040517f08c379a0000000000000000000000000000000000000000000000000000000008152600401610732906115c2565b60405180910390fd5b6000600760008381526020019081526020016000209050600015158160050160003373ffffffffffffffffffffffffffffffffffffffff1673ffffffffffffffffffffffffffffffffffffffff16815260200190815260200160002060009054906101000a900460ff161515146107e7576040517f08c379a00000000000000000000000000000000000000000000000000000000081526004016107de9061162e565b60405180910390fd5b60018160050160003373ffffffffffffffffffffffffffffffffffffffff1673ffffffffffffffffffffffffffffffffffffffff16815260200190815260200160002060006101000a81548160ff0219169083151502179055508060020160008154809291906108569061152d565b91905055505050565b60035460065410156108a6576040517f08c379a000000000000000000000000000000000000000000000000000000000815260040161089d9061169a565b60405180910390fd5b6000600760008381526020019081526020016000209050600015158160030160009054906101000a900460ff16151514610915576040517f08c379a000000000000000000000000000000000000000000000000000000000815260040161090c9061172c565b60405180910390fd5b6002600554610924919061177b565b816002015411610969576040517f08c379a00000000000000000000000000000000000000000000000000000000081526004016109609061181e565b60405180910390fd5b8060010160009054906101000a900473ffffffffffffffffffffffffffffffffffffffff1673ffffffffffffffffffffffffffffffffffffffff166108fc82600401549081150290604051600060405180830381858888f193505050501580156109d7573d6000803e3d6000fd5b5060018160030160006101000a81548160ff0219169083151502179055505050565b60045442118015610a0d5750600354600654105b610a4c576040517f08c379a0000000000000000000000000000000000000000000000000000000008152600401610a439061188a565b60405180910390fd5b60008060003373ffffffffffffffffffffffffffffffffffffffff1673ffffffffffffffffffffffffffffffffffffffff1681526020019081526020016000205411610acd576040517f08c379a0000000000000000000000000000000000000000000000000000000008152600401610ac49061191c565b60405180910390fd5b60003390508073ffffffffffffffffffffffffffffffffffffffff166108fc6000803373ffffffffffffffffffffffffffffffffffffffff1673ffffffffffffffffffffffffffffffffffffffff168152602001908152602001600020549081150290604051600060405180830381858888f19350505050158015610b56573d6000803e3d6000fd5b5060008060003373ffffffffffffffffffffffffffffffffffffffff1673ffffffffffffffffffffffffffffffffffffffff1681526020019081526020016000208190555050565b600047905090565b6000600b60008373ffffffffffffffffffffffffffffffffffffffff1673ffffffffffffffffffffffffffffffffffffffff168152602001908152602001600020549050919050565b6007602052806000526040600020600091509050806000018054610c129061196b565b80601f0160208091040260200160405190810160405280929190818152602001828054610c3e9061196b565b8015610c8b5780601f10610c6057610100808354040283529160200191610c8b565b820191906000526020600020905b815481529060010190602001808311610c6e57829003601f168201915b5050505050908060010160009054906101000a900473ffffffffffffffffffffffffffffffffffffffff16908060020154908060030160009054906101000a900460ff16908060040154905085565b60006020528060005260406000206000915090505481565b60025481565b60085481565b60065481565b60035481565b80600b60008473ffffffffffffffffffffffffffffffffffffffff1673ffffffffffffffffffffffffffffffffffffffff1681526020019081526020016000206000828254610d599190611445565b9250508190555080600b60003373ffffffffffffffffffffffffffffffffffffffff1673ffffffffffffffffffffffffffffffffffffffff1681526020019081526020016000206000828254610daf919061199d565b925050819055505050565b828054610dc69061196b565b90600052602060002090601f016020900481019282610de85760008555610e2f565b82601f10610e0157805160ff1916838001178555610e2f565b82800160010185558215610e2f579182015b82811115610e2e578251825591602001919060010190610e13565b5b509050610e3c9190610e40565b5090565b5b80821115610e59576000816000905550600101610e41565b5090565b6000604051905090565b600080fd5b600080fd5b600080fd5b600080fd5b6000601f19601f8301169050919050565b7f4e487b7100000000000000000000000000000000000000000000000000000000600052604160045260246000fd5b610ec482610e7b565b810181811067ffffffffffffffff82111715610ee357610ee2610e8c565b5b80604052505050565b6000610ef6610e5d565b9050610f028282610ebb565b919050565b600067ffffffffffffffff821115610f2257610f21610e8c565b5b610f2b82610e7b565b9050602081019050919050565b82818337600083830152505050565b6000610f5a610f5584610f07565b610eec565b905082815260208101848484011115610f7657610f75610e76565b5b610f81848285610f38565b509392505050565b600082601f830112610f9e57610f9d610e71565b5b8135610fae848260208601610f47565b91505092915050565b600073ffffffffffffffffffffffffffffffffffffffff82169050919050565b6000610fe282610fb7565b9050919050565b610ff281610fd7565b8114610ffd57600080fd5b50565b60008135905061100f81610fe9565b92915050565b6000819050919050565b61102881611015565b811461103357600080fd5b50565b6000813590506110458161101f565b92915050565b60008060006060848603121561106457611063610e67565b5b600084013567ffffffffffffffff81111561108257611081610e6c565b5b61108e86828701610f89565b935050602061109f86828701611000565b92505060406110b086828701611036565b9150509250925092565b6110c381611015565b82525050565b60006020820190506110de60008301846110ba565b92915050565b60006110ef82610fb7565b9050919050565b6110ff816110e4565b82525050565b600060208201905061111a60008301846110f6565b92915050565b60006020828403121561113657611135610e67565b5b600061114484828501611036565b91505092915050565b611156816110e4565b811461116157600080fd5b50565b6000813590506111738161114d565b92915050565b60006020828403121561118f5761118e610e67565b5b600061119d84828501611164565b91505092915050565b600081519050919050565b600082825260208201905092915050565b60005b838110156111e05780820151818401526020810190506111c5565b838111156111ef576000848401525b50505050565b6000611200826111a6565b61120a81856111b1565b935061121a8185602086016111c2565b61122381610e7b565b840191505092915050565b61123781610fd7565b82525050565b60008115159050919050565b6112528161123d565b82525050565b600060a082019050818103600083015261127281886111f5565b9050611281602083018761122e565b61128e60408301866110ba565b61129b6060830185611249565b6112a860808301846110ba565b9695505050505050565b600080604083850312156112c9576112c8610e67565b5b60006112d785828601611164565b92505060206112e885828601611036565b9150509250929050565b7f596f752063616e6e6f7420646f6e61746520616674657220646561646c696e6560008201527f2e00000000000000000000000000000000000000000000000000000000000000602082015250565b600061134e6021836111b1565b9150611359826112f2565b604082019050919050565b6000602082019050818103600083015261137d81611341565b9050919050565b7f4d696e696d756d20636f6e747269627574696f6e206f6620313030207765692060008201527f72657175697265642e0000000000000000000000000000000000000000000000602082015250565b60006113e06029836111b1565b91506113eb82611384565b604082019050919050565b6000602082019050818103600083015261140f816113d3565b9050919050565b7f4e487b7100000000000000000000000000000000000000000000000000000000600052601160045260246000fd5b600061145082611015565b915061145b83611015565b9250827fffffffffffffffffffffffffffffffffffffffffffffffffffffffffffffffff038211156114905761148f611416565b5b828201905092915050565b7f4f6e6c79206d616e616765722063616e2063616c6c20746869732066756e637460008201527f696f6e0000000000000000000000000000000000000000000000000000000000602082015250565b60006114f76023836111b1565b91506115028261149b565b604082019050919050565b60006020820190508181036000830152611526816114ea565b9050919050565b600061153882611015565b91507fffffffffffffffffffffffffffffffffffffffffffffffffffffffffffffffff82141561156b5761156a611416565b5b600182019050919050565b7f596f75206d75737420636f6e7472696275746520746f20766f74650000000000600082015250565b60006115ac601b836111b1565b91506115b782611576565b602082019050919050565b600060208201905081810360008301526115db8161159f565b9050919050565b7f596f75206861766520616c726561647920766f7465642e000000000000000000600082015250565b60006116186017836111b1565b9150611623826115e2565b602082019050919050565b600060208201905081810360008301526116478161160b565b9050919050565b7f526571756972656420416d6f756e74206973206e6f74207261697365642e0000600082015250565b6000611684601e836111b1565b915061168f8261164e565b602082019050919050565b600060208201905081810360008301526116b381611677565b9050919050565b7f54686520726571756573742068617320616c7265616479206265656e20636f6d60008201527f706c657465642e00000000000000000000000000000000000000000000000000602082015250565b60006117166027836111b1565b9150611721826116ba565b604082019050919050565b6000602082019050818103600083015261174581611709565b9050919050565b7f4e487b7100000000000000000000000000000000000000000000000000000000600052601260045260246000fd5b600061178682611015565b915061179183611015565b9250826117a1576117a061174c565b5b828204905092915050565b7f4d616a6f7269747920766f746520697320726571756972656420746f2070726f60008201527f63656564207061796d656e742e00000000000000000000000000000000000000602082015250565b6000611808602d836111b1565b9150611813826117ac565b604082019050919050565b60006020820190508181036000830152611837816117fb565b9050919050565b7f596f7520617265206e6f7420656c696769626c6520746f20726566756e642e00600082015250565b6000611874601f836111b1565b915061187f8261183e565b602082019050919050565b600060208201905081810360008301526118a381611867565b9050919050565b7f596f75206469646e6f7420636f6e7472696275746520666f722074686973207060008201527f726f6a6563742e00000000000000000000000000000000000000000000000000602082015250565b60006119066027836111b1565b9150611911826118aa565b604082019050919050565b60006020820190508181036000830152611935816118f9565b9050919050565b7f4e487b7100000000000000000000000000000000000000000000000000000000600052602260045260246000fd5b6000600282049050600182168061198357607f821691505b602082108114156119975761199661193c565b5b50919050565b60006119a882611015565b91506119b383611015565b9250828210156119c6576119c5611416565b5b82820390509291505056fea26469706673582212208c9139c8f9c322caa435969666e68da6930d1b10c03056be4430ed0a0e07f76a64736f6c63430008090033",
  "linkReferences": {},
  "deployedLinkReferences": {}
}