{
  "_format": "hh-sol-artifact-1",
  "contractName": "CrowedFunding",
  "sourceName": "contracts/Funding.sol",
  "abi": [
    {
      "inputs": [],
      "stateMutability": "nonpayable",
      "type": "constructor"
    },
    {
      "inputs": [
        {
          "internalType": "address",
          "name": "",
          "type": "address"
        }
      ],
      "name": "contributer",
      "outputs": [
        {
          "internalType": "uint256",
          "name": "",
          "type": "uint256"
        }
      ],
      "stateMutability": "view",
      "type": "function"
    },
    {
      "inputs": [
        {
          "internalType": "string",
          "name": "_description",
          "type": "string"
        },
        {
          "internalType": "address payable",
          "name": "_recipient",
          "type": "address"
        },
        {
          "internalType": "uint256",
          "name": "_value",
          "type": "uint256"
        }
      ],
      "name": "createRequest",
      "outputs": [],
      "stateMutability": "nonpayable",
      "type": "function"
    },
    {
      "inputs": [],
      "name": "deadline",
      "outputs": [
        {
          "internalType": "uint256",
          "name": "",
          "type": "uint256"
        }
      ],
      "stateMutability": "view",
      "type": "function"
    },
    {
      "inputs": [],
      "name": "getContractBalance",
      "outputs": [
        {
          "internalType": "uint256",
          "name": "",
          "type": "uint256"
        }
      ],
      "stateMutability": "view",
      "type": "function"
    },
    {
      "inputs": [
        {
          "internalType": "uint256",
          "name": "_requestNo",
          "type": "uint256"
        }
      ],
      "name": "makePayment",
      "outputs": [],
      "stateMutability": "nonpayable",
      "type": "function"
    },
    {
      "inputs": [],
      "name": "manager",
      "outputs": [
        {
          "internalType": "address",
          "name": "",
          "type": "address"
        }
      ],
      "stateMutability": "view",
      "type": "function"
    },
    {
      "inputs": [],
      "name": "minContribution",
      "outputs": [
        {
          "internalType": "uint256",
          "name": "",
          "type": "uint256"
        }
      ],
      "stateMutability": "view",
      "type": "function"
    },
    {
      "inputs": [],
      "name": "noOfContributer",
      "outputs": [
        {
          "internalType": "uint256",
          "name": "",
          "type": "uint256"
        }
      ],
      "stateMutability": "view",
      "type": "function"
    },
    {
      "inputs": [],
      "name": "noOfRequests",
      "outputs": [
        {
          "internalType": "uint256",
          "name": "",
          "type": "uint256"
        }
      ],
      "stateMutability": "view",
      "type": "function"
    },
    {
      "inputs": [],
      "name": "raisedAmount",
      "outputs": [
        {
          "internalType": "uint256",
          "name": "",
          "type": "uint256"
        }
      ],
      "stateMutability": "view",
      "type": "function"
    },
    {
      "inputs": [],
      "name": "refund",
      "outputs": [],
      "stateMutability": "nonpayable",
      "type": "function"
    },
    {
      "inputs": [
        {
          "internalType": "uint256",
          "name": "",
          "type": "uint256"
        }
      ],
      "name": "requests",
      "outputs": [
        {
          "internalType": "string",
          "name": "description",
          "type": "string"
        },
        {
          "internalType": "address payable",
          "name": "recipient",
          "type": "address"
        },
        {
          "internalType": "uint256",
          "name": "noOfVoters",
          "type": "uint256"
        },
        {
          "internalType": "bool",
          "name": "completed",
          "type": "bool"
        },
        {
          "internalType": "uint256",
          "name": "value",
          "type": "uint256"
        }
      ],
      "stateMutability": "view",
      "type": "function"
    },
    {
      "inputs": [],
      "name": "sendEth",
      "outputs": [],
      "stateMutability": "payable",
      "type": "function"
    },
    {
      "inputs": [],
      "name": "target",
      "outputs": [
        {
          "internalType": "uint256",
          "name": "",
          "type": "uint256"
        }
      ],
      "stateMutability": "view",
      "type": "function"
    },
    {
      "inputs": [
        {
          "internalType": "uint256",
          "name": "_requestNo",
          "type": "uint256"
        }
      ],
      "name": "voteRequest",
      "outputs": [],
      "stateMutability": "nonpayable",
      "type": "function"
    }
  ],
  "bytecode": "0x6080604052612710600955618ca0600a553480156200001d57600080fd5b5033600160006101000a81548173ffffffffffffffffffffffffffffffffffffffff021916908373ffffffffffffffffffffffffffffffffffffffff160217905550600a54426200006f9190620000c5565b600481905550600954600381905550606460028190555062000122565b6000819050919050565b7f4e487b7100000000000000000000000000000000000000000000000000000000600052601160045260246000fd5b6000620000d2826200008c565b9150620000df836200008c565b9250827fffffffffffffffffffffffffffffffffffffffffffffffffffffffffffffffff0382111562000117576200011662000096565b5b828201905092915050565b61181e80620001326000396000f3fe6080604052600436106100e85760003560e01c8063590e1ae31161008a578063aaffadf311610059578063aaffadf3146102b3578063c1f11b4c146102de578063c59ee1dc14610309578063d4b8399214610334576100e8565b8063590e1ae3146101f35780636f9fb98a1461020a57806381d12c58146102355780639746483e14610276576100e8565b806330d539e1116100c657806330d539e11461014b578063481c6a75146101765780634cb6f4a5146101a15780635114cb52146101ca576100e8565b806306e99fef146100ed5780631b16bb5c146100f757806329dcb0cf14610120575b600080fd5b6100f561035f565b005b34801561010357600080fd5b5061011e60048036038101906101199190610ed6565b6104b9565b005b34801561012c57600080fd5b5061013561060c565b6040516101429190610f54565b60405180910390f35b34801561015757600080fd5b50610160610612565b60405161016d9190610f54565b60405180910390f35b34801561018257600080fd5b5061018b610618565b6040516101989190610f90565b60405180910390f35b3480156101ad57600080fd5b506101c860048036038101906101c39190610fab565b61063e565b005b3480156101d657600080fd5b506101f160048036038101906101ec9190610fab565b6107e3565b005b3480156101ff57600080fd5b5061020861097d565b005b34801561021657600080fd5b5061021f610b22565b60405161022c9190610f54565b60405180910390f35b34801561024157600080fd5b5061025c60048036038101906102579190610fab565b610b2a565b60405161026d95949392919061108a565b60405180910390f35b34801561028257600080fd5b5061029d60048036038101906102989190611110565b610c15565b6040516102aa9190610f54565b60405180910390f35b3480156102bf57600080fd5b506102c8610c2d565b6040516102d59190610f54565b60405180910390f35b3480156102ea57600080fd5b506102f3610c33565b6040516103009190610f54565b60405180910390f35b34801561031557600080fd5b5061031e610c39565b60405161032b9190610f54565b60405180910390f35b34801561034057600080fd5b50610349610c3f565b6040516103569190610f54565b60405180910390f35b60045442106103a3576040517f08c379a000000000000000000000000000000000000000000000000000000000815260040161039a906111af565b60405180910390fd5b60025434116103e7576040517f08c379a00000000000000000000000000000000000000000000000000000000081526004016103de90611241565b60405180910390fd5b60008060003373ffffffffffffffffffffffffffffffffffffffff1673ffffffffffffffffffffffffffffffffffffffff168152602001908152602001600020541415610449576001600560008282546104419190611290565b925050819055505b346000803373ffffffffffffffffffffffffffffffffffffffff1673ffffffffffffffffffffffffffffffffffffffff16815260200190815260200160002060008282546104979190611290565b9250508190555034600660008282546104b09190611290565b92505081905550565b600160009054906101000a900473ffffffffffffffffffffffffffffffffffffffff1673ffffffffffffffffffffffffffffffffffffffff163373ffffffffffffffffffffffffffffffffffffffff1614610549576040517f08c379a000000000000000000000000000000000000000000000000000000000815260040161054090611358565b60405180910390fd5b600060076000600854815260200190815260200160002090506008600081548092919061057590611378565b919050555083816000019080519060200190610592929190610c45565b50828160010160006101000a81548173ffffffffffffffffffffffffffffffffffffffff021916908373ffffffffffffffffffffffffffffffffffffffff16021790555081816004018190555060008160030160006101000a81548160ff0219169083151502179055506000816002018190555050505050565b60045481565b60055481565b600160009054906101000a900473ffffffffffffffffffffffffffffffffffffffff1681565b60008060003373ffffffffffffffffffffffffffffffffffffffff1673ffffffffffffffffffffffffffffffffffffffff16815260200190815260200160002054116106bf576040517f08c379a00000000000000000000000000000000000000000000000000000000081526004016106b69061140d565b60405180910390fd5b6000600760008381526020019081526020016000209050600015158160050160003373ffffffffffffffffffffffffffffffffffffffff1673ffffffffffffffffffffffffffffffffffffffff16815260200190815260200160002060009054906101000a900460ff1615151461076b576040517f08c379a000000000000000000000000000000000000000000000000000000000815260040161076290611479565b60405180910390fd5b60018160050160003373ffffffffffffffffffffffffffffffffffffffff1673ffffffffffffffffffffffffffffffffffffffff16815260200190815260200160002060006101000a81548160ff0219169083151502179055508060020160008154809291906107da90611378565b91905055505050565b600354600654101561082a576040517f08c379a0000000000000000000000000000000000000000000000000000000008152600401610821906114e5565b60405180910390fd5b6000600760008381526020019081526020016000209050600015158160030160009054906101000a900460ff16151514610899576040517f08c379a000000000000000000000000000000000000000000000000000000000815260040161089090611577565b60405180910390fd5b60026005546108a891906115c6565b8160020154116108ed576040517f08c379a00000000000000000000000000000000000000000000000000000000081526004016108e490611669565b60405180910390fd5b8060010160009054906101000a900473ffffffffffffffffffffffffffffffffffffffff1673ffffffffffffffffffffffffffffffffffffffff166108fc82600401549081150290604051600060405180830381858888f1935050505015801561095b573d6000803e3d6000fd5b5060018160030160006101000a81548160ff0219169083151502179055505050565b600454421180156109915750600354600654105b6109d0576040517f08c379a00000000000000000000000000000000000000000000000000000000081526004016109c7906116d5565b60405180910390fd5b60008060003373ffffffffffffffffffffffffffffffffffffffff1673ffffffffffffffffffffffffffffffffffffffff1681526020019081526020016000205411610a51576040517f08c379a0000000000000000000000000000000000000000000000000000000008152600401610a4890611767565b60405180910390fd5b60003390508073ffffffffffffffffffffffffffffffffffffffff166108fc6000803373ffffffffffffffffffffffffffffffffffffffff1673ffffffffffffffffffffffffffffffffffffffff168152602001908152602001600020549081150290604051600060405180830381858888f19350505050158015610ada573d6000803e3d6000fd5b5060008060003373ffffffffffffffffffffffffffffffffffffffff1673ffffffffffffffffffffffffffffffffffffffff1681526020019081526020016000208190555050565b600047905090565b6007602052806000526040600020600091509050806000018054610b4d906117b6565b80601f0160208091040260200160405190810160405280929190818152602001828054610b79906117b6565b8015610bc65780601f10610b9b57610100808354040283529160200191610bc6565b820191906000526020600020905b815481529060010190602001808311610ba957829003601f168201915b5050505050908060010160009054906101000a900473ffffffffffffffffffffffffffffffffffffffff16908060020154908060030160009054906101000a900460ff16908060040154905085565b60006020528060005260406000206000915090505481565b60025481565b60085481565b60065481565b60035481565b828054610c51906117b6565b90600052602060002090601f016020900481019282610c735760008555610cba565b82601f10610c8c57805160ff1916838001178555610cba565b82800160010185558215610cba579182015b82811115610cb9578251825591602001919060010190610c9e565b5b509050610cc79190610ccb565b5090565b5b80821115610ce4576000816000905550600101610ccc565b5090565b6000604051905090565b600080fd5b600080fd5b600080fd5b600080fd5b6000601f19601f8301169050919050565b7f4e487b7100000000000000000000000000000000000000000000000000000000600052604160045260246000fd5b610d4f82610d06565b810181811067ffffffffffffffff82111715610d6e57610d6d610d17565b5b80604052505050565b6000610d81610ce8565b9050610d8d8282610d46565b919050565b600067ffffffffffffffff821115610dad57610dac610d17565b5b610db682610d06565b9050602081019050919050565b82818337600083830152505050565b6000610de5610de084610d92565b610d77565b905082815260208101848484011115610e0157610e00610d01565b5b610e0c848285610dc3565b509392505050565b600082601f830112610e2957610e28610cfc565b5b8135610e39848260208601610dd2565b91505092915050565b600073ffffffffffffffffffffffffffffffffffffffff82169050919050565b6000610e6d82610e42565b9050919050565b610e7d81610e62565b8114610e8857600080fd5b50565b600081359050610e9a81610e74565b92915050565b6000819050919050565b610eb381610ea0565b8114610ebe57600080fd5b50565b600081359050610ed081610eaa565b92915050565b600080600060608486031215610eef57610eee610cf2565b5b600084013567ffffffffffffffff811115610f0d57610f0c610cf7565b5b610f1986828701610e14565b9350506020610f2a86828701610e8b565b9250506040610f3b86828701610ec1565b9150509250925092565b610f4e81610ea0565b82525050565b6000602082019050610f696000830184610f45565b92915050565b6000610f7a82610e42565b9050919050565b610f8a81610f6f565b82525050565b6000602082019050610fa56000830184610f81565b92915050565b600060208284031215610fc157610fc0610cf2565b5b6000610fcf84828501610ec1565b91505092915050565b600081519050919050565b600082825260208201905092915050565b60005b83811015611012578082015181840152602081019050610ff7565b83811115611021576000848401525b50505050565b600061103282610fd8565b61103c8185610fe3565b935061104c818560208601610ff4565b61105581610d06565b840191505092915050565b61106981610e62565b82525050565b60008115159050919050565b6110848161106f565b82525050565b600060a08201905081810360008301526110a48188611027565b90506110b36020830187611060565b6110c06040830186610f45565b6110cd606083018561107b565b6110da6080830184610f45565b9695505050505050565b6110ed81610f6f565b81146110f857600080fd5b50565b60008135905061110a816110e4565b92915050565b60006020828403121561112657611125610cf2565b5b6000611134848285016110fb565b91505092915050565b7f596f752063616e6e6f7420646f6e61746520616674657220646561646c696e6560008201527f2e00000000000000000000000000000000000000000000000000000000000000602082015250565b6000611199602183610fe3565b91506111a48261113d565b604082019050919050565b600060208201905081810360008301526111c88161118c565b9050919050565b7f4d696e696d756d20636f6e747269627574696f6e206f6620313030207765692060008201527f72657175697265642e0000000000000000000000000000000000000000000000602082015250565b600061122b602983610fe3565b9150611236826111cf565b604082019050919050565b6000602082019050818103600083015261125a8161121e565b9050919050565b7f4e487b7100000000000000000000000000000000000000000000000000000000600052601160045260246000fd5b600061129b82610ea0565b91506112a683610ea0565b9250827fffffffffffffffffffffffffffffffffffffffffffffffffffffffffffffffff038211156112db576112da611261565b5b828201905092915050565b7f4f6e6c79206d616e616765722063616e2063616c6c20746869732066756e637460008201527f696f6e0000000000000000000000000000000000000000000000000000000000602082015250565b6000611342602383610fe3565b915061134d826112e6565b604082019050919050565b6000602082019050818103600083015261137181611335565b9050919050565b600061138382610ea0565b91507fffffffffffffffffffffffffffffffffffffffffffffffffffffffffffffffff8214156113b6576113b5611261565b5b600182019050919050565b7f596f75206d75737420636f6e7472696275746520746f20766f74650000000000600082015250565b60006113f7601b83610fe3565b9150611402826113c1565b602082019050919050565b60006020820190508181036000830152611426816113ea565b9050919050565b7f596f75206861766520616c726561647920766f7465642e000000000000000000600082015250565b6000611463601783610fe3565b915061146e8261142d565b602082019050919050565b6000602082019050818103600083015261149281611456565b9050919050565b7f526571756972656420416d6f756e74206973206e6f74207261697365642e0000600082015250565b60006114cf601e83610fe3565b91506114da82611499565b602082019050919050565b600060208201905081810360008301526114fe816114c2565b9050919050565b7f54686520726571756573742068617320616c7265616479206265656e20636f6d60008201527f706c657465642e00000000000000000000000000000000000000000000000000602082015250565b6000611561602783610fe3565b915061156c82611505565b604082019050919050565b6000602082019050818103600083015261159081611554565b9050919050565b7f4e487b7100000000000000000000000000000000000000000000000000000000600052601260045260246000fd5b60006115d182610ea0565b91506115dc83610ea0565b9250826115ec576115eb611597565b5b828204905092915050565b7f4d616a6f7269747920766f746520697320726571756972656420746f2070726f60008201527f63656564207061796d656e742e00000000000000000000000000000000000000602082015250565b6000611653602d83610fe3565b915061165e826115f7565b604082019050919050565b6000602082019050818103600083015261168281611646565b9050919050565b7f596f7520617265206e6f7420656c696769626c6520746f20726566756e642e00600082015250565b60006116bf601f83610fe3565b91506116ca82611689565b602082019050919050565b600060208201905081810360008301526116ee816116b2565b9050919050565b7f596f75206469646e6f7420636f6e7472696275746520666f722074686973207060008201527f726f6a6563742e00000000000000000000000000000000000000000000000000602082015250565b6000611751602783610fe3565b915061175c826116f5565b604082019050919050565b6000602082019050818103600083015261178081611744565b9050919050565b7f4e487b7100000000000000000000000000000000000000000000000000000000600052602260045260246000fd5b600060028204905060018216806117ce57607f821691505b602082108114156117e2576117e1611787565b5b5091905056fea2646970667358221220f6f76157294829695d4a5f2c22c958f7884123c98bbd6e402af1057ae37cc26f64736f6c63430008090033",
  "linkReferences": {},
  "deployedLinkReferences": {}
}